{
  "contractName": "Store",
  "abi": [
    {
      "constant": true,
      "inputs": [
        {
          "name": "",
          "type": "uint256"
        }
      ],
      "name": "products",
      "outputs": [
        {
          "name": "id",
          "type": "uint256"
        },
        {
          "name": "name",
          "type": "string"
        },
        {
          "name": "price",
          "type": "uint256"
        },
        {
          "name": "stock",
          "type": "uint256"
        }
      ],
      "payable": false,
      "stateMutability": "view",
      "type": "function"
    },
    {
      "constant": true,
      "inputs": [
        {
          "name": "",
          "type": "address"
        }
      ],
      "name": "buyers",
      "outputs": [
        {
          "name": "id",
          "type": "uint256"
        },
        {
          "name": "name",
          "type": "string"
        },
        {
          "name": "price",
          "type": "uint256"
        },
        {
          "name": "stock",
          "type": "uint256"
        }
      ],
      "payable": false,
      "stateMutability": "view",
      "type": "function"
    },
    {
      "constant": true,
      "inputs": [],
      "name": "productCount",
      "outputs": [
        {
          "name": "",
          "type": "uint256"
        }
      ],
      "payable": false,
      "stateMutability": "view",
      "type": "function"
    },
    {
      "inputs": [],
      "payable": false,
      "stateMutability": "nonpayable",
      "type": "constructor"
    },
    {
      "anonymous": false,
      "inputs": [
        {
          "indexed": true,
          "name": "_productId",
          "type": "uint256"
        }
      ],
      "name": "boughtEvent",
      "type": "event"
    },
    {
      "constant": false,
      "inputs": [
        {
          "name": "_productId",
          "type": "uint256"
        }
      ],
      "name": "buy",
      "outputs": [],
      "payable": true,
      "stateMutability": "payable",
      "type": "function"
    }
  ],
  "bytecode": "0x608060405234801561001057600080fd5b506100606040805190810160405280600981526020017f50726f6475637420310000000000000000000000000000000000000000000000815250600a6100b4640100000000026401000000009004565b6100af6040805190810160405280600981526020017f50726f647563742032000000000000000000000000000000000000000000000081525060146100b4640100000000026401000000009004565b6101e6565b600260008154809291906001019190505550608060405190810160405280600254815260200183815260200160648152602001828152506000806002548152602001908152602001600020600082015181600001556020820151816001019080519060200190610125929190610141565b5060408201518160020155606082015181600301559050505050565b828054600181600116156101000203166002900490600052602060002090601f016020900481019282601f1061018257805160ff19168380011785556101b0565b828001600101855582156101b0579182015b828111156101af578251825591602001919060010190610194565b5b5090506101bd91906101c1565b5090565b6101e391905b808211156101df5760008160009055506001016101c7565b5090565b90565b61062e806101f56000396000f3fe608060405260043610610062576000357c0100000000000000000000000000000000000000000000000000000000900463ffffffff1680637acc0b201461006757806397a993aa14610130578063d96a094a1461020f578063e0f6ef871461023d575b600080fd5b34801561007357600080fd5b506100a06004803603602081101561008a57600080fd5b8101908080359060200190929190505050610268565b6040518085815260200180602001848152602001838152602001828103825285818151815260200191508051906020019080838360005b838110156100f25780820151818401526020810190506100d7565b50505050905090810190601f16801561011f5780820380516001836020036101000a031916815260200191505b509550505050505060405180910390f35b34801561013c57600080fd5b5061017f6004803603602081101561015357600080fd5b81019080803573ffffffffffffffffffffffffffffffffffffffff169060200190929190505050610330565b6040518085815260200180602001848152602001838152602001828103825285818151815260200191508051906020019080838360005b838110156101d15780820151818401526020810190506101b6565b50505050905090810190601f1680156101fe5780820380516001836020036101000a031916815260200191505b509550505050505060405180910390f35b61023b6004803603602081101561022557600080fd5b81019080803590602001909291905050506103f8565b005b34801561024957600080fd5b50610252610550565b6040518082815260200191505060405180910390f35b6000602052806000526040600020600091509050806000015490806001018054600181600116156101000203166002900480601f01602080910402602001604051908101604052809291908181526020018280546001816001161561010002031660029004801561031a5780601f106102ef5761010080835404028352916020019161031a565b820191906000526020600020905b8154815290600101906020018083116102fd57829003601f168201915b5050505050908060020154908060030154905084565b6001602052806000526040600020600091509050806000015490806001018054600181600116156101000203166002900480601f0160208091040260200160405190810160405280929190818152602001828054600181600116156101000203166002900480156103e25780601f106103b7576101008083540402835291602001916103e2565b820191906000526020600020905b8154815290600101906020018083116103c557829003601f168201915b5050505050908060020154908060030154905084565b600080600083815260200190815260200160002060030154111515610460576040517f08c379a0000000000000000000000000000000000000000000000000000000008152600401808060200182810382526000815260200160200191505060405180910390fd5b600080828152602001908152602001600020600160003373ffffffffffffffffffffffffffffffffffffffff1673ffffffffffffffffffffffffffffffffffffffff16815260200190815260200160002060008201548160000155600182018160010190805460018160011615610100020316600290046104e2929190610556565b5060028201548160020155600382015481600301559050506000808281526020019081526020016000206003016000815480929190600190039190505550807ff2670abd02b475be51b08b4833909ef96165e73935b8ddbd3fec80a2eda4814a60405160405180910390a250565b60025481565b828054600181600116156101000203166002900490600052602060002090601f016020900481019282601f1061058f57805485556105cc565b828001600101855582156105cc57600052602060002091601f016020900482015b828111156105cb5782548255916001019190600101906105b0565b5b5090506105d991906105dd565b5090565b6105ff91905b808211156105fb5760008160009055506001016105e3565b5090565b9056fea165627a7a723058200447bfe24dca167f31d083f5ac7583fd5bcd9bf1aca7ec59c8dbadf7a8d0ac740029",
  "source": "pragma solidity ^0.5.0;\n\ncontract Store {\n    event boughtEvent(uint indexed _productId);\n\n    struct Product {\n        uint id;\n        string name;\n        uint price;\n        uint stock;\n    }\n\n    mapping(uint => Product) public products;\n\n    mapping(address => Product) public buyers;\n\n    uint public productCount;\n\n    constructor () public {\n        addProduct(\"Product 1\", 10);\n        addProduct(\"Product 2\", 20);\n    }\n\n    function addProduct (string memory _name, uint _stock) private {\n        productCount ++;\n        products[productCount] = Product(productCount, _name, 100, _stock);\n\n    }\n    function buy (uint _productId) public payable {\n\n        require (products[_productId].stock > 0, \"\");\n\n        buyers[msg.sender] = products[_productId];\n        products[_productId].stock --;\n\n        emit boughtEvent(_productId);\n\n\n    }\n}",
  "sourcePath": "/home/ismail/nimisha/dapp-new/contracts/Store.sol",
  "compiler": {
    "name": "solc",
    "version": "0.5.0+commit.1d4f565a.Emscripten.clang"
  },
  "schemaVersion": "3.0.9",
  "updatedAt": "2019-06-05T19:03:12.769Z",
  "devdoc": {
    "methods": {}
  },
  "userdoc": {
    "methods": {}
  }
}